:100000000C9462000C948A000C948A000C948A0070
:100010000C948A000C948A000C948A000C948A0038
:100020000C948A000C948A000C948A000C948A0028
:100030000C948A000C948A000C948A000C948A0018
:100040000C940A010C948A000C9498030C94CA0333
:100050000C948A000C948A000C948A000C948A00F8
:100060000C948A000C948A0000000009000302002E
:10007000000405080000000000000000000000016E
:10008000020408102040800102040810200102042C
:100090000810204080400404040404040404020204
:1000A000020202020303030303030202030000002F
:1000B00000250028002B0000000000240027002A53
:1000C0000000FA0311241FBECFEFD8E0DEBFCDBF82
:1000D00011E0A0E0B1E0EEE8F9E002C005900D9279
:1000E000A836B107D9F722E0A8E6B1E001C01D9219
:1000F000AE30B207E1F710E0C2E6D0E004C02197CD
:10010000FE010E94B104C136D107C9F70E947F04E5
:100110000C94C5040C94000061E08DE00E94030281
:1001200060E08DE00E943F0261E08DE00E943F02AE
:1001300068EC70E080E090E00E94790160E08DE082
:100140000E943F0226E040E855E260E070E081E76F
:1001500091E00E94400360E071E081E791E00E943D
:10016000670461E08DE00E943F0268EC70E080E08F
:1001700090E00E94790160E08DE00E943F0268EC0F
:1001800070E080E090E00E9479016DE071E081E72D
:1001900091E00E94670464E081E090E00E94B7046F
:1001A00061E08DE00E943F0268EC70E080E090E04A
:1001B0000E94790160E08DE00E943F0268EC70E0EF
:1001C00080E090E00E94790161E371E081E791E0D5
:1001D0000E94670460EA82E090E00E94B70461E058
:1001E0008DE00E943F0268EC70E080E090E00E94A9
:1001F000790160E08DE00E943F0268EC70E080E0F1
:1002000090E00E9479016BE471E081E791E00C9449
:10021000670408951F920F920FB60F9211242F9327
:100220003F938F939F93AF93BF9380916D01909174
:100230006E01A0916F01B091700130916C0123E0CB
:10024000230F2D3768F126E8230F0296A11DB11D5B
:1002500020936C0180936D0190936E01A0936F01C8
:10026000B09370018091680190916901A0916A0139
:10027000B0916B010196A11DB11D8093680190930F
:100280006901A0936A01B0936B01BF91AF919F91F7
:100290008F913F912F910F900FBE0F901F90189547
:1002A0000196A11DB11DD4CF3FB7F894809168018C
:1002B00090916901A0916A01B0916B0126B5A89B4C
:1002C00005C02F3F19F00196A11DB11D3FBFBA2FE8
:1002D000A92F982F8827BC01CD01620F711D811DA8
:1002E000911D42E0660F771F881F991F4A95D1F72D
:1002F00008958F929F92AF92BF92CF92DF92EF922A
:10030000FF926B017C010E9454014B015C01C114FE
:10031000D104E104F104E9F00E948E040E9454012A
:10032000681979098A099B09683E7340810591051E
:1003300070F321E0C21AD108E108F10888EE880EB6
:1003400083E0981EA11CB11CC114D104E104F10486
:1003500029F7FF90EF90DF90CF90BF90AF909F90E4
:100360008F900895789484B5836084BD85B583604B
:1003700085BDEEE6F0E0808181608083E1E8F0E019
:1003800082E08083808181608083E0E8F0E080818A
:1003900081608083E1EBF0E0808184608083E0EB2A
:1003A000F0E080818160808387E880937A001092FA
:1003B000C1000895843081F028F48230E9F0833060
:1003C000F9F00895883071F0893091F08530B9F4F2
:1003D000809180008F7D03C0809180008F77809313
:1003E000800008958091B0008F778093B0000895C9
:1003F0008091B0008F7DF9CF84B58F7784BD08954B
:1004000084B58F7DFBCFCF93DF9390E0FC01E15863
:10041000FF4F24918A569F4FFC0184918823C9F095
:1004200090E0880F991FFC01E954FF4FA591B4910A
:10043000FC01E355FF4FC591D49161110DC09FB7E9
:10044000F8948C91209582238C938881282328838B
:100450009FBFDF91CF910895623051F49FB7F89418
:100460003C91822F809583238C93E8812E2BEFCFB4
:100470008FB7F894EC912E2B2C938FBFEACF1F935C
:10048000CF93DF93282F30E0F901E859FF4F849193
:10049000F901E158FF4FD491F901EA56FF4FC49199
:1004A000CC23A9F0162F81110E94DA01EC2FF0E085
:1004B000EE0FFF1FE355FF4FA591B4918FB7F8944E
:1004C000EC91111108C0D095DE23DC938FBFDF9132
:1004D000CF911F910895DE2BF8CFFC01918D228DD5
:1004E000892F90E0805C9F4F821B91098F73992721
:1004F0000895FC01918D828D981731F0828DE80F5F
:10050000F11D858D90E008958FEF9FEF0895FC0118
:10051000918D828D981761F0A28DAE0FBF2FB11D06
:100520005D968C91928D9F5F9F73928F90E008955E
:100530008FEF9FEF0895FC01538D448D252F30E000
:10054000842F90E0821B930B541710F0CF960895E0
:100550000197089580EF93E0892B49F080E090E0C7
:10056000892B29F00E94F00381110C94000008955A
:10057000FC01A48DA80FB92FB11DA35ABF4F2C9118
:10058000848D90E001968F739927848FA689B7890F
:100590002C93A089B1898C9180648C93938D848DE8
:1005A000981306C00288F389E02D80818F7D8083B7
:1005B0000895CF93DF93EC01888D8823B9F0AA8941
:1005C000BB89E889F9898C9185FD03C0808186FD0E
:1005D0000DC00FB607FCF7CF8C9185FFF2CF80815D
:1005E00085FFEDCFCE010E94B802E9CFDF91CF9118
:1005F0000895EF92FF920F931F93CF93DF93EC0137
:1006000081E0888F9B8D8C8D981316C0E889F989BD
:10061000808185FF11C0EE89FF896083E889F989AF
:1006200080818064808381E090E0DF91CF911F9191
:100630000F91FF90EF900895F62E0B8D10E00F5F55
:100640001F4F0F731127E02E8C8D8E110CC00FB62B
:1006500007FCFACFE889F989808185FFF5CFCE01C3
:100660000E94B802F1CFEB8DEC0FFD2FF11DE35A84
:10067000FF4FF0820B8FEA89FB8980818062D2CFA5
:10068000CF92DF92EF92FF921F93CF93DF93EC0113
:100690006A017B01122FE889F98982E08083C11405
:1006A00081EED806E104F104A1F060E079E08DE389
:1006B00090E0A70196010E948F0421503109410961
:1006C00051095695479537952795211580E13807AB
:1006D00098F0E889F989108260E874E88EE190E08A
:1006E000A70196010E948F04215031094109510947
:1006F0005695479537952795EC85FD853083EE8592
:10070000FF852083188EEC89FD891083EA89FB8997
:10071000808188698083EA89FB8980818F7D8083DD
:10072000DF91CF911F91FF90EF90DF90CF900895D0
:100730001F920F920FB60F9211242F938F939F93B6
:10074000EF93FF93E0918101F09182018081E0912C
:100750008701F091880182FD1BC0908180918A0100
:100760008F5F8F7320918B01821741F0E0918A0196
:10077000F0E0EF58FE4F958F80938A01FF91EF9143
:100780009F918F912F910F900FBE0F901F901895F2
:100790008081F4CF1F920F920FB60F9211242F93E6
:1007A0003F934F935F936F937F938F939F93AF93F9
:1007B000BF93EF93FF9381E791E00E94B802FF910E
:1007C000EF91BF91AF919F918F917F916F915F91C9
:1007D0004F913F912F910F900FBE0F901F90189542
:1007E00081E791E00E946D0221E0892B09F420E06D
:1007F000822F0895E1E7F1E01382128288EE93E000
:10080000A0E0B0E084839583A683B78387E591E079
:100810009183808385EC90E09587848784EC90E0D9
:100820009787868780EC90E0918B808B81EC90E0BD
:10083000938B828B82EC90E0958B848B86EC90E09E
:10084000978B868B118E128E138E148E0895AF9215
:10085000BF92CF92DF92EF92FF920F931F93CF93AD
:10086000DF936C017B018B01040F151FEB015E010F
:10087000AE18BF08C017D10759F06991D601ED91A4
:10088000FC910190F081E02DC6010995892B79F743
:10089000C501DF91CF911F910F91FF90EF90DF90F5
:1008A000CF90BF90AF900895FB0101900020E9F731
:1008B0003197AF01461B570BDC01ED91FC91028093
:1008C000F381E02D099465E671E00C9454040F93D4
:1008D0001F93CF93DF938C01D0E0C0E061157105C9
:1008E00019F00E945404EC01C8010E9463048C0FAB
:1008F0009D1FDF91CF911F910F91089508950E9440
:10090000B2010E947E040E948C00CAEAD2E00E94DA
:1009100009012097E1F30E94AA02F9CF0895A1E20C
:100920001A2EAA1BBB1BFD010DC0AA1FBB1FEE1F69
:10093000FF1FA217B307E407F50720F0A21BB30BB4
:10094000E40BF50B661F771F881F991F1A9469F730
:1009500060957095809590959B01AC01BD01CF018C
:100960000895EE0FFF1F0590F491E02D0994262FB6
:10097000F999FECF1FBA92BD81BD20BD0FB6F89484
:0E098000FA9AF99A0FBE01960895F894FFCFE7
:10098E00496E697469616C697A696E6700496E694E
:10099E007469616C697A696E6720747261636B2029
:1009AE006C656E67746820746F20343020636D2020
:1009BE0000496E697469616C697A696E6720536368
:1009CE00616C6520746F2031363000444F4E4520E7
:1009DE0021200000000000F90227049B02D9026DBD
:0809EE0002870279020D0A00E4
:00000001FF
