:100000000C9468000C9490000C9490000C94900058
:100010000C9490000C9490000C9490000C94900020
:100020000C9490000C9490000C9490000C94900010
:100030000C9490000C9490000C9490000C94900000
:100040000C949B0A0C9490000C94690D0C949B0DDD
:100050000C9490000C9490000C9490000C949000E0
:100060000C9490000C949000000000090003020022
:10007000000405080000000000000000000000016E
:10008000020408102040800102040810200102042C
:100090000810204080400404040404040404020204
:1000A000020202020303030303030202030000002F
:1000B0000023002600290000000000250028002B56
:1000C0000000000000240027002A0000FF08CB0DDC
:1000D00011241FBECFEFD8E0DEBFCDBF16E0A0E0F9
:1000E000B1E0E2E7F2E202C005900D92AA36B10754
:1000F000D9F727E0AAE6B6E001C01D92A334B20703
:10010000E1F710E0C8E6D0E004C02197FE010E94AC
:100110000111C636D107C9F70E942B0F0C94371175
:100120000C9400006115710579F0FB01019000202D
:10013000E9F73197AF01461B570BDC01ED91FC91BC
:100140000280F381E02D099490E080E0089561E061
:100150008DE00E94AB0B61E080E10E94AB0B61E09F
:1001600081E10E94AB0B61E082E10E94AB0B61E098
:1001700083E10E94AB0B61E08DE00E94E70B26E07B
:1001800040E855E260E070E086EA96E00E94110DDA
:1001900066E071E086EA96E00E94470E63E171E056
:1001A00086EA96E00E94340E609104017091050188
:1001B0004AE050E086EA96E00E94F90E6FE171E0B5
:1001C00086EA96E00E94470E60E08DE00E94E70B11
:1001D00020E042E060E18AE696E00E94D9098AE6E2
:1001E00096E00E94D1098AE696E00E94B90961E092
:1001F0008DE00E94E70B8AE696E00E94B90969E269
:1002000071E08AE696E00E94340E68EE73E080E0CA
:1002100090E00E94160B66E371E086EA96E00E9489
:10022000470E81E090E00E94211190E0909303013D
:10023000809302016BE471E086EA96E00E94340E3E
:1002400060910201709103014AE050E086EA96E075
:100250000E94F90E82E090E00E94211190E09093BC
:100260000101809300016BE671E086EA96E00E944E
:10027000340E60910001709101014AE050E086EA7D
:1002800096E00E94F90E60E871E086EA96E00E942E
:10029000470E6BEA71E086EA96E00E94470E609195
:1002A000000170910101072E000C880B990B0E9430
:1002B000DE0F26E636E646E650E40E946A1020E0AD
:1002C00030E040EA51E40E946A1020E030E048E467
:1002D00053E40E943B0F0E94AD0F6093870670931A
:1002E00088068093890690938A0670939C06609393
:1002F0009B066AEE71E086EA96E00E94340E6091F9
:100300000001709101014AE050E086EA96E00E9407
:10031000F20E60EF71E086EA96E00E94470E40918F
:100320008706509188066091890670918A062AE0B6
:1003300030E086EA96E00E94180F60919B0670916B
:100340009C064AE050E086EA96E00E94F90E8AE6B2
:1003500096E00E94B90966E071E08AE696E00E94A4
:10036000340E64EF71E080E090E00E94160B6DEFB8
:1003700071E086EA96E00E94470E61E087E00E9405
:10038000AB0B61E088E00E94AB0B61E089E00E946A
:10039000AB0B61E08AE00E94AB0B61E08BE00E9456
:1003A000AB0B61E08CE00E94AB0B65E172E086EA8A
:1003B00096E00E94470E62E082E00E94AB0B62E092
:1003C00083E00E94AB0B62E084E00E94AB0B62E032
:1003D00085E00E94AB0B62E086E00E94AB0B62E01E
:1003E0008EE00E94AB0B62E08FE00E94AB0B65E5F4
:1003F00072E086EA96E00E94470E6AE672E086EABC
:1004000096E00E94470E1092850610928606109282
:10041000840610928306109282068AE696E00E9475
:10042000B9096CE772E08AE696E00E94340E64EF48
:1004300071E080E090E00E94160B60E087E00E948F
:10044000E70B60E088E00E94E70B60E089E00E9433
:10045000E70B60E08AE00E94E70B61E08DE00E941C
:10046000E70B8AE696E00E94B90940E060E08AE680
:1004700096E00E94C00965E872E08AE696E00E9474
:10048000920041E060E08AE696E00E94C00962E9DD
:1004900072E08AE696E00E94920062EA72E086EAE2
:1004A00096E00E94470E64EB72E086EA96E00C94B8
:1004B000470ECF9362EE72E086EA96E00E94470E06
:1004C00060EF72E086EA96E00E94470E10929A066C
:1004D00010929906C1E0C0938506109286066DEFD2
:1004E00072E086EA96E00E94470E61E089E00E9491
:1004F000E70B61E08AE00E94E70B6DE073E086EABB
:1005000096E00E94470E61E08DE00E94E70B61E0FB
:1005100087E00E94E70B60E088E00E94E70B61E261
:1005200073E086EA96E00E94470EC0938406C0936B
:1005300083061092930610929406109295061092DC
:10054000960610928F0610929006109291061092C5
:10055000920610928B0610928C0610928D061092C5
:100560008E068AE696E00E94B90940E060E08AE6DD
:1005700096E00E94C00961E373E08AE696E00E947B
:10058000920041E060E08AE696E00E94C00961E4E2
:1005900073E08AE696E0CF910C94920061E573E0F7
:1005A00086EA96E00E94470E61E08DE00E94E70B2C
:1005B00061E087E00E94E70B61E088E00E94E70BC2
:1005C0008AE696E00E94B90940E060E08AE696E09B
:1005D0000E94C0096EE573E08AE696E00E949200F0
:1005E00041E060E08AE696E00E94C0096EE673E0B2
:1005F0008AE696E00E94920010929A06109299065E
:1006000010928506109286066EE773E086EA96E001
:100610000E94470E60E089E00E94E70B60E08AE0FC
:100620000E94E70B6DE073E086EA96E00E94470EB9
:1006300061E273E086EA96E00E94470E109284061B
:1006400010928306109293061092940610929506CB
:100650001092960610928F061092900610929106B4
:100660001092920610928B0610928C0610928D06B4
:1006700010928E0660ED77E080E090E00E94160B0D
:100680008AE696E00E94B90940E060E08AE696E0DA
:100690000E94C00965E872E08AE696E00E94920036
:1006A00041E060E08AE696E00E94C00962E972E0FB
:1006B0008AE696E00E94920061E08DE00E94E70BDE
:1006C00060E087E00E94E70B60E088E00E94E70BB3
:1006D0000C940000089560E973E086EA96E00E94B9
:1006E000470E6EE973E086EA96E00E94470E81E0CD
:1006F00090E090939A068093990662EB73E086EA05
:1007000096E00E94470E1092840681E08093830653
:10071000109285068093860660E087E00E94E70BD2
:1007200061E088E00E94E70B60E089E00E94E70B4F
:1007300061E08AE00E94E70B0E94E50A609393065D
:1007400070939406809395069093960610928F0668
:1007500010929006109291061092920610928B06BB
:1007600010928C0610928D0610928E068AE696E004
:100770000E94B90940E060E08AE696E00E94C00964
:100780006AEC73E08AE696E00E94920041E060E045
:100790008AE696E00E94C00967ED73E08AE696E07B
:1007A0000C94920065EE73E086EA96E00E94470E94
:1007B00063EF73E086EA96E00E94470E82E090E0E5
:1007C00090939A068093990668E074E086EA96E032
:1007D0000E94470E81E08093840610928306109257
:1007E00085068093860660E087E00E94E70B61E063
:1007F00088E00E94E70B60E08AE00E94E70B61E07E
:1008000089E00E94E70B0E94E50A609393067093CB
:100810009406809395069093960610928F061092F8
:100820009006109291061092920610928B061092EA
:100830008C0610928D0610928E068AE696E00E9433
:10084000B90940E060E08AE696E00E94C00961E2F2
:1008500074E08AE696E00E94920041E060E08AE659
:1008600096E00E94C00967ED73E08AE696E00C947A
:100870009200CF92DF92EF92FF92CF93DF9360E0EE
:100880008DE00E94E70B6FE274E086EA96E00E943A
:10089000470E109284061092830666E474E086EA9E
:1008A00096E00E94470E10929A06109299061092B6
:1008B00085061092860660E087E00E94E70B60E004
:1008C00088E00E94E70B60E089E00E94E70B60E0AF
:1008D0008AE00E94E70B6FE574E086EA96E00E94EA
:1008E000470E80918F0690919006A0919106B0914D
:1008F00092064091930650919406609195067091EE
:100900009606841B950BA60BB70B80938B069093D2
:100910008C06A0938D06B0938E0620910201309133
:100920000301C8E6D1E02C9FC0012D9F900D3C9F94
:10093000900D1124092E000CAA0BBB0B8093870687
:1009400090938806A0938906B0938A066BE674E0BC
:1009500086EA96E00E94340E409187065091880600
:100960006091890670918A062AE030E086EA96E076
:100970000E94180FA0910001B091010120918706FB
:10098000309188064091890650918A060E94F9109C
:1009900060938706709388068093890690938A06F1
:1009A00066E874E086EA96E00E94340E409187067D
:1009B000509188066091890670918A062AE030E09D
:1009C00086EA96E00E94180F60918706709188066B
:1009D0008091890690918A0620918B0630918C0631
:1009E00040918D0650918E060E94D7102093870665
:1009F000309388064093890650938A0661EA74E032
:100A000086EA96E00E94340E40918706509188064F
:100A10006091890670918A062AE030E086EA96E0C5
:100A20000E94180F809187069091880690939C06EB
:100A300080939B0680910201909103018C9F90010D
:100A40008D9F300D9C9F300D11248091000190915D
:100A50000101289FB001299F700D389F700D11244E
:100A6000072E000C880B990B20918B0630918C0679
:100A700040918D0650918E060E94D71069016CEB53
:100A800074E086EA96E00E94340E4AE050E0B60137
:100A900086EA96E00E94F90E69EC74E086EA96E038
:100AA0000E94470E8AE696E00E94B90940E060E0A5
:100AB0008AE696E00E94C00964ED74E08AE696E05A
:100AC0000E94920040E067E08AE696E00E94C0093A
:100AD00040918B0650918C0660918D0670918E0628
:100AE0002AE030E08AE696E00E940B0F41E060E0E9
:100AF0008AE696E00E94C0096AED74E08AE696E014
:100B00000E94920041E067E08AE696E00E94C009F8
:100B100060919B0670919C064AE050E08AE696E060
:100B20000E94F20E60EE74E086EA96E00E94340EB7
:100B300060910201709103014AE050E086EA96E07C
:100B40000E94F20E6AEE74E086EA96E00E94470E7A
:100B50006EEE74E086EA96E00E94340E40918B06B9
:100B600050918C0660918D0670918E062AE030E0DF
:100B700086EA96E00E940B0F68EF74E086EA96E042
:100B80000E94470E6EEF74E086EA96E00E94340EF3
:100B900060910001709101014AE050E086EA96E020
:100BA0000E94F20E63EA71E086EA96E00E94470E28
:100BB00068E075E086EA96E00E94340E60919B063C
:100BC00070919C064AE050E086EA96E00E94F20EA0
:100BD00062E175E086EA96E00E94470E61E08DE0F2
:100BE000DF91CF91FF90EF90DF90CF900C94E70BC7
:100BF00041E060E08AE696E00E94C00968E175E0A5
:100C00008AE696E00E94920065EE73E086EA96E03E
:100C10000E94470E60E275E086EA96E00E94470E69
:100C20000E94E50A60938F06709390068093910668
:100C3000909392060C94390441E060E08AE696E0D5
:100C40000E94C00968E175E08AE696E00E94920081
:100C500060E973E086EA96E00E94470E64E375E07F
:100C600086EA96E00E94470E0E94E50A60938F068E
:100C70007093900680939106909392060C94390499
:100C8000EF92FF920F931F93CF93DF93C0910001D8
:100C9000D0910101009102011091030181E0809344
:100CA000820681E090E0909398068093970667E42F
:100CB00075E086EA96E00E94340E4AE050E0BE01FC
:100CC00086EA96E00E94F90E8AE696E00E94B9094B
:100CD00040E060E08AE696E00E94C00966E575E0C3
:100CE0008AE696E00E94920040E06AE08AE696E09A
:100CF0000E94C0094AE050E0BE018AE696E00E94E8
:100D0000F20E64EF71E080E090E00E94160B86E046
:100D10000E94150CF12C892B41F464EF71E080E006
:100D200090E00E94160BFF24F3948EE00E94150CB5
:100D3000892B61F568EC70E080E090E00E94160B72
:100D40002196C13FD10514F0C0EFD0E04AE050E059
:100D5000BE0186EA96E00E94F90E40E06AE08AE66B
:100D600096E00E94C0096FE575E08AE696E00E9471
:100D7000920040E06AE08AE696E00E94C0094AE0FC
:100D800050E0BE018AE696E00E94F20E8FE00E94DB
:100D9000150C892B61F568EC70E080E090E00E9412
:100DA000160B21971C161D0614F0C1E0D0E04AE096
:100DB00050E0BE0186EA96E00E94F90E40E06AE04B
:100DC0008AE696E00E94C0096FE575E08AE696E043
:100DD0000E94920040E06AE08AE696E00E94C00924
:100DE0004AE050E0BE018AE696E00E94F20EFF2043
:100DF00009F48DCF65E675E086EA96E00E94340E30
:100E00004AE050E0B80186EA96E00E94F90E41E01F
:100E100060E08AE696E00E94C00965E775E08AE630
:100E200096E00E94920041E06AE08AE696E00E9425
:100E3000C0094AE050E0B8018AE696E00E94F20E4E
:100E400064EF71E080E090E00E94160B86E00E9463
:100E5000150CF12C892B41F464EF71E080E090E0F7
:100E60000E94160BFF24F3948EE00E94150C892B30
:100E700069F568EC70E080E090E00E94160B0F5F6F
:100E80001F4F093C110514F008EC10E04AE050E057
:100E9000B80186EA96E00E94F90E41E06AE08AE62F
:100EA00096E00E94C0096FE575E08AE696E00E9430
:100EB000920041E06AE08AE696E00E94C0094AE0BA
:100EC00050E0B8018AE696E00E94F20E8FE00E94A0
:100ED000150C892B69F568EC70E080E090E00E94C9
:100EE000160B015011091016110614F001E010E064
:100EF0004AE050E0B80186EA96E00E94F90E41E02F
:100F00006AE08AE696E00E94C0096FE575E08AE62D
:100F100096E00E94920041E06AE08AE696E00E9434
:100F2000C0094AE050E0B8018AE696E00E94F20E5D
:100F3000FF2009F48BCF64EF71E080E090E00E9425
:100F4000160B6FE775E086EA96E00E94340E63E9BF
:100F500075E086EA96E00E94470E8AE696E00E94D7
:100F6000B90940E061E08AE696E00E94C00967E9BD
:100F700075E08AE696E00E9492004AE061E08AE627
:100F800096E00E94C00961EA75E08AE696E00E9458
:100F9000920064EF71E080E090E00E94160B68EA36
:100FA00075E086EA96E00E94470EFF24F39486E0FF
:100FB0000E94150CE12C892B41F464EF71E080E074
:100FC00090E00E94160BEE24E3948EE00E94150C34
:100FD000892BE1F468EC70E080E090E00E94160B51
:100FE0004AE061E08AE696E0F11076C00E94C0090E
:100FF00061EA75E08AE696E00E94920068EA75E090
:1010000086EA96E00E94470EFF24F3948FE00E9448
:10101000150C892BE1F468EC70E080E090E00E9410
:10102000160B4AE061E08AE696E0F11065C00E9486
:10103000C00961EA75E08AE696E00E94920068EADB
:1010400075E086EA96E00E94470EFF24F394EE20B6
:1010500009F4ADCFFF20C1F06DEB75E086EA96E0B4
:101060000E94470E1093030100930201602F81E05C
:1010700090E00E942911D0930101C09300016C2FD0
:1010800082E090E00E9429118AE696E00E94B90968
:1010900040E060E08AE696E00E94C00965E872E000
:1010A0008AE696E00E94920041E060E08AE696E0DF
:1010B0000E94C00964EE75E08AE696E00E94920004
:1010C00063EF75E086EA96E0DF91CF911F910F9173
:1010D000FF90EF900C94470E0E94C0096FEA75E0F4
:1010E0008AE696E00E94920066EB75E086EA96E05A
:1010F0000E94470EF12C8ACF0E94C0096FEA75E06A
:101100008AE696E00E94920066EB75E086EA96E039
:101110000E94470EF12C9BCF809185068823B1F069
:1011200061E087E00E94E70B60E088E00E94E70B47
:1011300082E00E94150C892B11F00C946B0383E064
:101140000E94150C892B11F00C94D2038091860615
:101150008823E1F060E087E00E94E70B61E088E02F
:101160000E94E70B82E00E94150C892B29F08091E8
:10117000840681110C941C0683E00E94150C892BB7
:1011800029F08091830681110C94F80585E00E9476
:10119000150C892B11F40C94CE0284E00E94150CDE
:1011A000892B21F480918506882381F086E00E94B6
:1011B000150C892B69F46EE176E086EA96E00E94D0
:1011C000470E81E0809382060C9440060C945902ED
:1011D0008EE00E94150C892B31F46CE276E086EAF1
:1011E00096E00E94470E8FE00E94150C892B31F487
:1011F0006AE376E086EA96E00C94470E0895CF9273
:10120000EF920F9383E1C82E92E1E92E01E120E1F4
:101210004BE06CE08AE696E00E94750A0F91EF9031
:10122000CF90089590E080E008950895CF93DF93E4
:10123000EC0160E08E810E94E70B81E090E00E946B
:101240004F0B61E08E810E94E70B81E090E00E94ED
:101250004F0B60E08E810E94E70B84E690E0DF9107
:10126000CF910C944F0BCF92DF92EF92FF920F939E
:101270001F93CF93DF936C017C0187E0E80EF11C94
:10128000D0E0C0E0062F10E0B8010C2E02C075952A
:1012900067950A94E2F76170F70181917F010E94DE
:1012A000E70B2196C430D10579F7C601DF91CF91C4
:1012B0001F910F91FF90EF90DF90CF900C94160943
:1012C000CF92DF92EF92FF920F931F93CF93DF9312
:1012D0006C017C0187E0E80EF11CD0E0C0E0062F35
:1012E00010E0B8010C2E02C0759567950A94E2F7DC
:1012F0006170F70181917F010E94E70B2196C83050
:10130000D10579F7C601DF91CF911F910F91FF9021
:10131000EF90DF90CF900C9416091F93CF93DF933B
:10132000EC01162F642F8C810E94E70B8D818F3F7B
:1013300019F060E00E94E70B8F85612F84FF06C0E3
:10134000CE01DF91CF911F910C94600970E084E091
:10135000759567958A95E1F7CE010E943309612F53
:10136000CE01DF91CF911F910C94330940E00C9492
:101370008D0961E00E94B60980ED97E00C944F0B57
:10138000443008F043E0FC012389421710F04FEF8E
:10139000420FFC01E40FF11D2489620F60680C9478
:1013A000B609FC016089262F2460208B6C600C94A8
:1013B000B6090F931F93CF93DF93EC01423018F0DF
:1013C0008F8588608F874B8B1C8A80E48D8B6E8B1A
:1013D000605C6F8B222329F0413019F48F85846083
:1013E0008F8761E08C810E94AB0B8D818F3F19F05C
:1013F00061E00E94AB0B61E08E810E94AB0B8E011D
:1014000098012C1B3D0B8F8584FD0DC084E090E07E
:101410000F5F1F4F281739074CF461E0F8018681F0
:101420000E94AB0BEDCF88E090E0F2CF80E593EC2B
:101430000E944F0B60E08C810E94E70B60E08E8180
:101440000E94E70B8D818F3F19F060E00E94E70B4F
:101450006F8564FD33C063E0CE010E94330984E9E7
:1014600091E10E944F0B63E0CE010E94330984E9B1
:1014700091E10E944F0B63E0CE010E94330986E99F
:1014800090E00E944F0B62E0CE010E9433096F850D
:101490006062CE010E94B60984E0888BCE010E9472
:1014A000D109CE010E94B90982E0898B66E0CE01A4
:1014B000DF91CF911F910F910C94B6096062CE011C
:1014C0000E94B60984E991E10E944F0B6F8560622A
:1014D000CE010E94B60986E990E00E944F0B6F850D
:1014E0006062CE010E94B609D2CFCF92EF920F93E5
:1014F000FC01138212828CE496E0918380836483E2
:101500008FEF8583468327830087E186C286138613
:10151000148615861686178620E041E060E1CF012B
:101520000F91EF90CF900C94D90941E00E948D0962
:1015300081E090E008951F920F920FB60F92112450
:101540002F933F938F939F93AF93BF938091A20666
:101550009091A306A091A406B091A5063091A10692
:1015600023E0230F2D3768F126E8230F0296A11DF3
:10157000B11D2093A1068093A2069093A306A09389
:10158000A406B093A50680919D0690919E06A09119
:101590009F06B091A0060196A11DB11D80939D06E6
:1015A00090939E06A0939F06B093A006BF91AF9123
:1015B0009F918F913F912F910F900FBE0F901F9091
:1015C00018950196A11DB11DD4CF2FB7F894609145
:1015D000A2067091A3068091A4069091A5062FBF44
:1015E00008953FB7F89480919D0690919E06A09132
:1015F0009F06B091A00626B5A89B05C02F3F19F005
:101600000196A11DB11D3FBFBA2FA92F982F882782
:10161000BC01CD01620F711D811D911D42E0660F5D
:10162000771F881F991F4A95D1F708958F929F922F
:10163000AF92BF92CF92DF92EF92FF926B017C014B
:101640000E94F10A4B015C01C114D104E104F104D0
:10165000E9F00E943A0F0E94F10A681979098A0993
:101660009B09683E73408105910570F321E0C21A21
:10167000D108E108F10888EE880E83E0981EA11CCD
:10168000B11CC114D104E104F10429F7FF90EF90DB
:10169000DF90CF90BF90AF909F908F900895823051
:1016A000910538F0880F991F880F991F05970197AA
:1016B000F1F70895789484B5836084BD85B583601F
:1016C00085BDEEE6F0E0808181608083E1E8F0E0B6
:1016D00082E08083808181608083E0E8F0E0808127
:1016E00081608083E1EBF0E0808184608083E0EBC7
:1016F000F0E080818160808387E880937A00109297
:10170000C1000895843081F028F48230E9F08330FC
:10171000F9F00895883071F0893091F08530B9F48E
:10172000809180008F7D03C0809180008F778093AF
:10173000800008958091B0008F778093B000089565
:101740008091B0008F7DF9CF84B58F7784BD0895E7
:1017500084B58F7DFBCFCF93DF9390E0FC01E15800
:10176000FF4F24918A569F4FFC0184918823C9F032
:1017700090E0880F991FFC01EF53FF4FA591B491A2
:10178000FC01E954FF4FC591D49161110DC09FB781
:10179000F8948C91209582238C9388812823288328
:1017A0009FBFDF91CF910895623051F49FB7F894B5
:1017B0003C91822F809583238C93E8812E2BEFCF51
:1017C0008FB7F894EC912E2B2C938FBFEACF1F93F9
:1017D000CF93DF93282F30E0F901E859FF4F849130
:1017E000F901E158FF4FD491F901EA56FF4FC49136
:1017F000CC23A9F0162F81110E94820BEC2FF0E070
:10180000EE0FFF1FE954FF4FA591B4918FB7F894E5
:10181000EC91111108C0D095DE23DC938FBFDF91CE
:10182000CF911F910895DE2BF8CFCF93DF93282F10
:1018300030E0F901E859FF4F8491F901E158FF4F79
:10184000D491F901EA56FF4FC491CC23A1F0811144
:101850000E94820BEC2FF0E0EE0FFF1FE355FF4FCD
:10186000A591B491EC91ED2381E090E009F480E042
:10187000DF91CF91089580E090E0FACFFC01918D47
:10188000228D892F90E0805C9F4F821B91098F737E
:1018900099270895FC01918D828D981731F0828DE2
:1018A000E80FF11D858D90E008958FEF9FEF08956B
:1018B000FC01918D828D981761F0A28DAE0FBF2F24
:1018C000B11D5D968C91928D9F5F9F73928F90E07A
:1018D00008958FEF9FEF0895FC01538D448D252FC0
:1018E00030E0842F90E0821B930B541710F0CF96BA
:1018F00008950197089581EC9DE0892B49F080E0DF
:1019000090E0892B29F00E94C10D81110C940000F8
:101910000895FC01A48DA80FB92FB11DA35ABF4F84
:101920002C91848D90E001968F739927848FA689DE
:10193000B7892C93A089B1898C9180648C93938D05
:10194000848D981306C00288F389E02D80818F7DF5
:1019500080830895CF93DF93EC01888D8823B9F0BD
:10196000AA89BB89E889F9898C9185FD03C08081AA
:1019700086FD0DC00FB607FCF7CF8C9185FFF2CF27
:10198000808185FFEDCFCE010E94890CE9CFDF91E8
:10199000CF910895EF92FF920F931F93CF93DF9310
:1019A000EC0181E0888F9B8D8C8D981316C0E8899F
:1019B000F989808185FF11C0EE89FF896083E889FC
:1019C000F98980818064808381E090E0DF91CF910C
:1019D0001F910F91FF90EF900895F62E0B8D10E060
:1019E0000F5F1F4F0F731127E02E8C8D8E110CC0CF
:1019F0000FB607FCFACFE889F989808185FFF5CF1A
:101A0000CE010E94890CF1CFEB8DEC0FFD2FF11D63
:101A1000E35AFF4FF0820B8FEA89FB898081806255
:101A2000D2CFCF92DF92EF92FF921F93CF93DF93AB
:101A3000EC016A017B01122FE889F98982E0808339
:101A4000C11481EED806E104F104A1F060E079E070
:101A50008DE390E0A70196010E94D7102150310933
:101A6000410951095695479537952795211580E1EC
:101A7000380798F0E889F989108260E874E88EE107
:101A800090E0A70196010E94D71021503109410929
:101A900051095695479537952795EC85FD853083F7
:101AA000EE85FF852083188EEC89FD891083EA89F5
:101AB000FB89808188698083EA89FB8980818F7DA9
:101AC0008083DF91CF911F91FF90EF90DF90CF90B7
:101AD00008951F920F920FB60F9211242F938F9398
:101AE0009F93EF93FF93E091B606F091B706808144
:101AF000E091BC06F091BD0682FD1BC090818091F3
:101B0000BF068F5F8F732091C006821741F0E0916E
:101B1000BF06F0E0EA55F94F958F8093BF06FF911D
:101B2000EF919F918F912F910F900FBE0F901F906B
:101B300018958081F4CF1F920F920FB60F92112447
:101B40002F933F934F935F936F937F938F939F93C5
:101B5000AF93BF93EF93FF9386EA96E00E94890CC0
:101B6000FF91EF91BF91AF919F918F917F916F9175
:101B70005F914F913F912F910F900FBE0F901F904B
:101B8000189586EA96E00E943E0C21E0892B09F424
:101B900020E0822F0895E6EAF6E01382128288EEB2
:101BA00093E0A0E0B0E084839583A683B78388E5C3
:101BB00096E09183808385EC90E09587848784EC20
:101BC00090E09787868780EC90E0918B808B81EC0A
:101BD00090E0938B828B82EC90E0958B848B86ECEB
:101BE00090E0978B868B118E128E138E148E089533
:101BF000AF92BF92CF92DF92EF92FF920F931F931B
:101C0000CF93DF936C017B018B01040F151FEB0158
:101C10005E01AE18BF08C017D10759F06991D6010F
:101C2000ED91FC910190F081E02DC6010995892B81
:101C300079F7C501DF91CF911F910F91FF90EF9040
:101C4000DF90CF90BF90AF900895FB0101900020EE
:101C5000E9F73197AF01461B570BDC01ED91FC9181
:101C60000280F381E02D09946115710511F00C9447
:101C7000250E90E080E00895DC01ED91FC9101904B
:101C8000F081E02D099466E676E00C94250E0F9322
:101C90001F93CF93DF938C01D0E0C0E061157105F5
:101CA00019F00E94250EEC01C8010E94430E8C0F12
:101CB0009D1FDF91CF911F910F9108958F929F9259
:101CC000AF92BF92EF92FF920F931F93CF93DF9348
:101CD000CDB7DEB7A1970FB6F894DEBF0FBECDBF6C
:101CE0007C01FA01CB0119A2223008F42AE08E010E
:101CF0000F5D1F4F822E912CB12CA12CBF01A5018D
:101D000094010E94D710F901CA016A300CF5605D98
:101D1000D8016E938D01232B242B252B79F790E08E
:101D200080E0109721F0BD01C7010E94250EA19609
:101D30000FB6F894DEBF0FBECDBFDF91CF911F91DC
:101D40000F91FF90EF90BF90AF909F908F9008956C
:101D5000695CDECFCF92DF92EF92FF920F931F93D9
:101D6000CF93DF932115310581F4DC01ED91FC91D6
:101D70000190F081E02D642FDF91CF911F910F91A1
:101D8000FF90EF90DF90CF9009942A30310501F554
:101D90002AE077FF1DC06A017B01EC016DE20E9421
:101DA0003C0E8C0144275527BA014C195D096E0978
:101DB0007F092AE0CE010E945E0E800F911FDF9105
:101DC000CF911F910F91FF90EF90DF90CF900895EA
:101DD000DF91CF911F910F91FF90EF90DF90CF9007
:101DE0000C945E0E9A01AB01770F660B770B0C9487
:101DF000AA0E0F931F93CF93DF93EC010E94F20E74
:101E00008C01CE010E94430E800F911FDF91CF9174
:101E10001F910F9108952115310541F4DC01ED91D9
:101E2000FC910190F081E02D642F09940C945E0EDA
:101E30000F931F93CF93DF93EC010E940B0F8C0144
:101E4000CE010E94430E800F911FDF91CF911F9111
:101E50000F91089508950E945A0B0E942A0F0E9424
:101E6000A700CBE7DCE00E948C082097E1F30E94FA
:101E70007B0CF9CF08950E944F0F0C9430100E94F4
:101E8000291058F00E94221040F029F45F3F29F0F9
:101E90000C94191051110C9464100C941F100E9492
:101EA000411068F39923B1F3552391F3951B550B1A
:101EB000BB27AA2762177307840738F09F5F5F4F1D
:101EC000220F331F441FAA1FA9F335D00E2E3AF05C
:101ED000E0E832D091505040E695001CCAF72BD074
:101EE000FE2F29D0660F771F881FBB1F26173707C5
:101EF0004807AB07B0E809F0BB0B802DBF01FF27F7
:101F000093585F4F3AF09E3F510578F00C941910AA
:101F10000C9464105F3FE4F3983ED4F38695779574
:101F20006795B795F7959F5FC9F7880F911D9695AF
:101F3000879597F90895E1E0660F771F881FBB1F0B
:101F4000621773078407BA0720F0621B730B840BB8
:101F5000BA0BEE1F88F7E09508950E94491088F0AB
:101F60009F5798F0B92F9927B751B0F0E1F0660F5D
:101F7000771F881F991F1AF0BA95C9F714C0B1309E
:101F800091F00E946310B1E008950C946310672FE4
:101F9000782F8827B85F39F0B93FCCF386957795CD
:101FA0006795B395D9F73EF49095809570956195B6
:101FB0007F4F8F4F9F4F0895E89409C097FB3EF4E1
:101FC00090958095709561957F4F8F4F9F4F992386
:101FD000A9F0F92F96E9BB279395F6958795779504
:101FE0006795B795F111F8CFFAF4BB0F11F460FFC4
:101FF0001BC06F5F7F4F8F4F9F4F16C0882311F01C
:1020000096E911C0772321F09EE8872F762F05C02F
:10201000662371F096E8862F70E060E02AF09A95CA
:10202000660F771F881FDAF7880F9695879597F9BF
:10203000089597F99F6780E870E060E008959FEF4A
:1020400080EC089500240A9416161706180609064F
:10205000089500240A94121613061406050608951E
:10206000092E0394000C11F4882352F0BB0F40F4A6
:10207000BF2B11F460FF04C06F5F7F4F8F4F9F4FE6
:10208000089557FD9058440F551F59F05F3F71F068
:102090004795880F97FB991F61F09F3F79F08795CF
:1020A0000895121613061406551FF2CF4695F1DF58
:1020B00008C0161617061806991FF1CF86957105E8
:1020C000610508940895E894BB2766277727CB011C
:1020D00097F908950E947D100C9430100E942210F0
:1020E00038F00E94291020F0952311F00C9419105B
:1020F0000C941F1011240C9464100E94411070F372
:10210000959FC1F3950F50E0551F629FF001729F9C
:10211000BB27F00DB11D639FAA27F00DB11DAA1FAB
:10212000649F6627B00DA11D661F829F2227B00DF8
:10213000A11D621F739FB00DA11D621F839FA00D83
:10214000611D221F749F3327A00D611D231F849FD3
:10215000600D211D822F762F6A2F11249F5750402A
:102160009AF0F1F088234AF0EE0FFF1FBB1F661FA5
:10217000771F881F91505040A9F79E3F510580F06E
:102180000C9419100C9464105F3FE4F3983ED4F360
:10219000869577956795B795F795E7959F5FC1F712
:1021A000FE2B880F911D9695879597F90895A1E2CA
:1021B0001A2EAA1BBB1BFD010DC0AA1FBB1FEE1FC1
:1021C000FF1FA217B307E407F50720F0A21BB30B0C
:1021D000E40BF50B661F771F881F991F1A9469F788
:1021E00060957095809590959B01AC01BD01CF01E4
:1021F0000895B7FF0C9407110E940711821B930BDF
:102200000895EE0FFF1F0590F491E02D09940E94B0
:102210001211A59F900DB49F900DA49F800D911D4C
:1022200011240895A29FB001B39FC001A39F700D18
:10223000811D1124911DB29F700D811D1124911DCE
:102240000895F999FECF92BD81BDF89A992780B57E
:102250000895262FF999FECF1FBA92BD81BD20BDEA
:102260000FB6F894FA9AF99A0FBE01960895F89469
:02227000FFCF9E
:10227200A00004000200496E697469616C697A69A0
:102282006E670056657273696F6E2020332E00539D
:1022920065747570204C434400547261696E20531A
:1022A200706565646F005265747269657665204574
:1022B2004550524F4D2064617461004D65617375E4
:1022C20072696E6720747261636B206C656E6774ED
:1022D2006820696E20646D203D20004D6561737534
:1022E20072696E67207363616C65203D20313A002C
:1022F20045737461626C697368696E672043616CCF
:1023020063756C6174696E6720636F6E7665727354
:10231200696F6E20666163746F7200646D2F6D73F6
:10232200202D3E206B6D2F6820203D202020332C55
:102332003620782064697374616E636528646D2940
:102342002078207363616C65285329202F205469FB
:102352006D65286D5365632920003336207820008F
:102362002078203230202F203230303000536574F4
:1023720074696E67204F7574707574206368616E3E
:102382006E656C730053657474696E67204F757463
:10239200707574206368616E6E656C7320616E6423
:1023A20020656E61626C696E6720696E7465726E1B
:1023B200616C2050756C6C20557020726573697366
:1023C200746F727300417474616368696E67206927
:1023D2006E74657272757074730053657474696E8D
:1023E20067207661726961626C6573005374617211
:1023F20074696E670053797374656D205265616408
:1024020079005072657373202A2A20474F202A2AA6
:102412002000496E697469616C69736174696F6ED9
:10242200204F4B0050726573732020535441525415
:102432002020627574746F6E20746F20696E6974E7
:1024420069617465206D6561737572656D656E7421
:10245200200044342020746F2067726F756E640010
:1024620053797374656D2061726D65640053657490
:1024720074696E67204952204C4544730053657459
:1024820074696E6720537461747573204C4544738C
:102492000053657474696E672073656E736F72732F
:1024A200002A2A2A2053544152544544202A2A2AD7
:1024B200005761697420666F72205369676E616CA0
:1024C2000053797374656D205265736574002A2A0E
:1024D20020522045205320452054202A2A00506CA7
:1024E2006561736520686F6C642E2E2E2E00526516
:1024F20073657474696E67204952204C45447300B9
:1025020044322020746F2067726F756E64004C65D0
:102512006674537461727420747269676765726558
:10252200640044697361626C696E67206C656674ED
:102532002073656E736F72203100535441525445BB
:1025420044204C454654004D6561737572696E674F
:102552002E2E2E2E0044332020746F2067726F754A
:102562006E64005269676874537461727420747285
:10257200696767657265640044697361626C696E5C
:10258200672072696768742073656E736F72203298
:102592000053544152544544205249474854004440
:1025A200697361626C696E6720626F74682073651B
:1025B2006E736F72730053657474696E67207379FA
:1025C2007374656D207661726961626C6573004334
:1025D200616C63756C6174696E6700537465702019
:1025E20031202D20332C36202A204C656E677468EA
:1025F2002020203A2000537465702032202D207351
:1026020070656564202A205363616C6520203A203E
:1026120000537465702033202D207370656564202B
:102622002F44656C74612020203A2000416C74654F
:10263200726E617465203A2000446973706C61792E
:10264200696E670054696D653A006B6D2F683D00D5
:102652004C656E677468203D200020646D005469EB
:102662006D652020203D2000206D5365630053637B
:10267200616C6520203D20004B6D2F682020203D9D
:102682002000206B6D2F680053544F50504544007A
:10269200526967687453746F7020747269676765F2
:1026A200726564004C65667453746F70207472694D
:1026B2006767657265640053656C65637420536374
:1026C200616C65203A005363616C65203A200020FA
:1026D200202020200053656C656374204C656E6772
:1026E2007468203A004C656E677468203A20004393
:1026F2006F6E6669726D206F722043616E63656CE6
:10270200203A00592F4E00416374696F6E203A20BF
:102712000041434345505400416363657074005265
:10272200454A4543540052656A65637400577269AD
:1027320074696E672076616C75657320746F206DA5
:10274200656D6F727920616E642075647061746961
:102752006E6720005072657373202A2A20474F202B
:102762002A2A00446F6E6520736176696E6720764F
:10277200616C7565732E2020726561647920666FC5
:1027820072206E65787420616374696F6E004436DE
:102792002020746F2067726F756E640041302020B4
:1027A200746F2067726F756E640041312020746F00
:1027B2002067726F756E640000000000950AF80DC4
:1027C2001209150900000000CA0CF80D6C0CAA0CC5
:0A27D2003E0C580C4A0C0D0A0000E2
:00000001FF
