:100000000C9468000C9490000C9490000C94900058
:100010000C9490000C9490000C9490000C94900020
:100020000C9490000C9490000C9490000C94900010
:100030000C9490000C9490000C9490000C94900000
:100040000C94A10A0C9490000C946F0D0C94A10DCB
:100050000C9490000C9490000C9490000C949000E0
:100060000C9490000C949000000000090003020022
:10007000000405080000000000000000000000016E
:10008000020408102040800102040810200102042C
:100090000810204080400404040404040404020204
:1000A000020202020303030303030202030000002F
:1000B0000023002600290000000000250028002B56
:1000C0000000000000240027002A00000509D10DCF
:1000D00011241FBECFEFD8E0DEBFCDBF16E0A0E0F9
:1000E000B1E0EEE7F2E202C005900D92AE36B10744
:1000F000D9F727E0AEE6B6E001C01D92A734B207FB
:10010000E1F710E0C8E6D0E004C02197FE010E94AC
:100110000711C636D107C9F70E94310F0C943D1163
:100120000C9400006115710579F0FB01019000202D
:10013000E9F73197AF01461B570BDC01ED91FC91BC
:100140000280F381E02D099490E080E0089561E061
:100150008DE00E94B10B61E080E10E94B10B61E093
:1001600081E10E94B10B61E082E10E94B10B61E08C
:1001700083E10E94B10B61E08DE00E94ED0B26E06F
:1001800040E855E260E070E08AEA96E00E94170DD0
:100190006AE071E08AEA96E00E944D0E67E171E044
:1001A0008AEA96E00E943A0E609108017091090176
:1001B0004AE050E08AEA96E00E94FF0E63E271E0B6
:1001C0008AEA96E00E944D0E60E08DE00E94ED0B01
:1001D00020E042E060E18EE696E00E94DF098EE6D4
:1001E00096E00E94D7098EE696E00E94BF0961E082
:1001F0008DE00E94ED0B8EE696E00E94BF096DE255
:1002000071E08EE696E00E943A0E68EE73E080E0C0
:1002100090E00E941C0B6AE371E08AEA96E00E947B
:100220004D0E81E090E00E94271190E0909307012D
:10023000809306016FE471E08AEA96E00E943A0E2C
:1002400060910601709107014AE050E08AEA96E069
:100250000E94FF0E82E090E00E94271190E09093B0
:100260000501809304016FE671E08AEA96E00E943E
:100270003A0E60910401709105014AE050E08AEA6B
:1002800096E00E94FF0E64E871E08AEA96E00E9420
:100290004D0E6FEA71E08AEA96E00E944D0E609181
:1002A000040170910501072E000C880B990B0E9428
:1002B000E40F26E636E646E650E40E94701020E0A1
:1002C00030E040EA51E40E94701020E030E048E461
:1002D00053E40E94410F0E94B30F60938B0670930A
:1002E0008C0680938D0690938E067093A006609383
:1002F0009F066EEE71E08AEA96E00E943A0E6091E7
:100300000401709105014AE050E08AEA96E00E94FB
:10031000F80E64EF71E08AEA96E00E944D0E40917B
:100320008B0650918C0660918D0670918E062AE0A6
:1003300030E08AEA96E00E941E0F60919F0670915D
:10034000A0064AE050E08AEA96E00E94FF0E8EE6A0
:1003500096E00E94BF096AE071E08EE696E00E9496
:100360003A0E64EF71E080E090E00E941C0B61E0C7
:1003700072E08AEA96E00E944D0E61E087E00E94FA
:10038000B10B61E088E00E94B10B61E089E00E945E
:10039000B10B61E08AE00E94B10B61E08BE00E944A
:1003A000B10B61E08CE00E94B10B69E172E08AEA76
:1003B00096E00E944D0E62E082E00E94B10B62E086
:1003C00083E00E94B10B62E084E00E94B10B62E026
:1003D00085E00E94B10B62E086E00E94B10B62E012
:1003E0008EE00E94B10B62E08FE00E94B10B69E5E4
:1003F00072E08AEA96E00E944D0E6EE672E08AEAAA
:1004000096E00E944D0E1092890610928A06109274
:10041000880610928706109286068EE696E00E9465
:10042000BF0960E872E08EE696E00E943A0E64EF43
:1004300071E080E090E00E941C0B60E087E00E9489
:10044000ED0B60E088E00E94ED0B60E089E00E9427
:10045000ED0B60E08AE00E94ED0B61E08DE00E9410
:10046000ED0B8EE696E00E94BF0940E060E08EE66C
:1004700096E00E94C60969E872E08EE696E00E9466
:10048000920041E060E08EE696E00E94C60966E9CF
:1004900072E08EE696E00E94920066EA72E08AEAD6
:1004A00096E00E944D0E68EB72E08AEA96E00C94AA
:1004B0004D0ECF9366EE72E08AEA96E00E944D0EF2
:1004C00064EF72E08AEA96E00E944D0E10929E065A
:1004D00010929D06C1E0C093890610928A0661E0E1
:1004E00073E08AEA96E00E944D0E61E089E00E9486
:1004F000ED0B61E08AE00E94ED0B61E173E08AEAB6
:1005000096E00E944D0E61E08DE00E94ED0B61E0EF
:1005100087E00E94ED0B60E088E00E94ED0B65E251
:1005200073E08AEA96E00E944D0EC0938806C0935D
:1005300087061092970610929806109299061092CC
:100540009A061092930610929406109295061092B5
:10055000960610928F0610929006109291061092B5
:1005600092068EE696E00E94BF0940E060E08EE6CB
:1005700096E00E94C60965E373E08EE696E00E946D
:10058000920041E060E08EE696E00E94C60965E4D4
:1005900073E08EE696E0CF910C94920065E573E0EF
:1005A0008AEA96E00E944D0E61E08DE00E94ED0B1C
:1005B00061E087E00E94ED0B61E088E00E94ED0BB6
:1005C0008EE696E00E94BF0940E060E08EE696E08D
:1005D0000E94C60962E673E08EE696E00E949200F1
:1005E00041E060E08EE696E00E94C60962E773E0B3
:1005F0008EE696E00E94920010929E0610929D0652
:100600001092890610928A0662E873E08AEA96E000
:100610000E944D0E60E089E00E94ED0B60E08AE0F0
:100620000E94ED0B61E173E08AEA96E00E944D0EB4
:1006300065E273E08AEA96E00E944D0E1092880609
:1006400010928706109297061092980610929906BB
:1006500010929A06109293061092940610929506A4
:100660001092960610928F061092900610929106A4
:100670001092920660ED77E080E090E00E941C0B03
:100680008EE696E00E94BF0940E060E08EE696E0CC
:100690000E94C60969E872E08EE696E00E94920028
:1006A00041E060E08EE696E00E94C60966E972E0ED
:1006B0008EE696E00E94920061E08DE00E94ED0BD4
:1006C00060E087E00E94ED0B60E088E00E94ED0BA7
:1006D0000C940000089564E973E08AEA96E00E94B1
:1006E0004D0E62EA73E08AEA96E00E944D0E81E0C8
:1006F00090E090939E0680939D0666EB73E08AEAF5
:1007000096E00E944D0E1092880681E08093870645
:100710001092890680938A0660E087E00E94ED0BC4
:1007200061E088E00E94ED0B60E089E00E94ED0B43
:1007300061E08AE00E94ED0B0E94EB0A609397064D
:10074000709398068093990690939A061092930658
:1007500010929406109295061092960610928F06AB
:100760001092900610929106109292068EE696E0F4
:100770000E94BF0940E060E08EE696E00E94C60954
:100780006EEC73E08EE696E00E94920041E060E03D
:100790008EE696E00E94C6096BED73E08EE696E069
:1007A0000C94920069EE73E08AEA96E00E944D0E86
:1007B00067EF73E08AEA96E00E944D0E82E090E0D7
:1007C00090939E0680939D066CE074E08AEA96E022
:1007D0000E944D0E81E08093880610928706109249
:1007E000890680938A0660E087E00E94ED0B61E055
:1007F00088E00E94ED0B60E08AE00E94ED0B61E072
:1008000089E00E94ED0B0E94EB0A609397067093BB
:1008100098068093990690939A06109293061092E8
:100820009406109295061092960610928F061092DA
:10083000900610929106109292068EE696E00E9423
:10084000BF0940E060E08EE696E00E94C60965E2DE
:1008500074E08EE696E00E94920041E060E08EE651
:1008600096E00E94C6096BED73E08EE696E00C946C
:100870009200CF92DF92EF92FF92CF93DF9360E0EE
:100880008DE00E94ED0B63E374E08AEA96E00E943B
:100890004D0E10928806109287066AE474E08AEA88
:1008A00096E00E944D0E10929E0610929D061092A8
:1008B000890610928A0660E087E00E94ED0B60E0F6
:1008C00088E00E94ED0B60E089E00E94ED0B60E0A3
:1008D0008AE00E94ED0B63E674E08AEA96E00E94EB
:1008E0004D0E8091930690919406A0919506B0913B
:1008F00096064091970650919806609199067091DE
:100900009A06841B950BA60BB70B80938F069093CA
:100910009006A0939106B093920620910601309123
:100920000701C8E6D1E02C9FC0012D9F900D3C9F90
:10093000900D1124092E000CAA0BBB0B80938B0683
:1009400090938C06A0938D06B0938E066FE674E0AC
:100950008AEA96E00E943A0E40918B0650918C06EE
:1009600060918D0670918E062AE030E08AEA96E06A
:100970000E941E0FA0910401B091050120918B06E9
:1009800030918C0640918D0650918E060E94FF108A
:1009900060938B0670938C0680938D0690938E06E1
:1009A0006AE874E08AEA96E00E943A0E40918B066B
:1009B00050918C0660918D0670918E062AE030E091
:1009C0008AEA96E00E941E0F60918B0670918C0659
:1009D00080918D0690918E0620918F063091900621
:1009E00040919106509192060E94DD1020938B0653
:1009F00030938C0640938D0650938E0665EA74E022
:100A00008AEA96E00E943A0E40918B0650918C063D
:100A100060918D0670918E062AE030E08AEA96E0B9
:100A20000E941E0F80918B0690918C069093A006D9
:100A300080939F0680910601909107018C9F900101
:100A40008D9F300D9C9F300D112480910401909159
:100A50000501289FB001299F700D389F700D11244A
:100A6000072E000C880B990B20918F063091900671
:100A700040919106509192060E94DD10690160EC50
:100A800074E08AEA96E00E943A0E4AE050E0B6012D
:100A90008AEA96E00E94FF0E6DEC74E08AEA96E026
:100AA0000E944D0E8EE696E00E94BF0940E060E095
:100AB0008EE696E00E94C60968ED74E08EE696E048
:100AC0000E94920040E067E08EE696E00E94C60930
:100AD00040918F0650919006609191067091920618
:100AE0002AE030E08EE696E00E94110F41E060E0DF
:100AF0008EE696E00E94C6096EED74E08EE696E002
:100B00000E94920041E067E08EE696E00E94C609EE
:100B100060919F067091A0064AE050E08EE696E054
:100B20000E94F80E64EE74E08AEA96E00E943A0EA3
:100B300060910601709107014AE050E08AEA96E070
:100B40000E94F80E6EEE74E08AEA96E00E944D0E66
:100B500062EF74E08AEA96E00E943A0E40918F06B6
:100B60005091900660919106709192062AE030E0D3
:100B70008AEA96E00E94110F6CEF74E08AEA96E030
:100B80000E944D0E62E075E08AEA96E00E943A0EFD
:100B900060910401709105014AE050E08AEA96E014
:100BA0000E94F80E67EA71E08AEA96E00E944D0E14
:100BB0006CE075E08AEA96E00E943A0E60919F062A
:100BC0007091A0064AE050E08AEA96E00E94F80E92
:100BD00066E175E08AEA96E00E944D0E61E08DE0E4
:100BE000DF91CF91FF90EF90DF90CF900C94ED0BC1
:100BF00041E060E08EE696E00E94C6096CE175E097
:100C00008EE696E00E94920069EE73E08AEA96E032
:100C10000E944D0E64E275E08AEA96E00E944D0E55
:100C20000E94EB0A60939306709394068093950656
:100C3000909396060C94390441E060E08EE696E0CD
:100C40000E94C6096CE175E08EE696E00E94920073
:100C500064E973E08AEA96E00E944D0E68E375E06D
:100C60008AEA96E00E944D0E0E94EB0A609393067A
:100C70007093940680939506909396060C9439048D
:100C8000EF92FF920F931F93CF93DF93C0910401D4
:100C9000D0910501009106011091070181E0809338
:100CA000860681E090E090939C0680939B066BE41F
:100CB00075E08AEA96E00E943A0E4AE050E0BE01F2
:100CC0008AEA96E00E94FF0E8EE696E00E94BF0937
:100CD00040E060E08EE696E00E94C6096AE575E0B5
:100CE0008EE696E00E94920040E06AE08EE696E092
:100CF0000E94C6094AE050E0BE018EE696E00E94DE
:100D0000F80E64EF71E080E090E00E941C0B86E03A
:100D10000E941B0CF12C892B41F464EF71E080E000
:100D200090E00E941C0BFF24F394809102010E942A
:100D30001B0C892B61F568EC70E080E090E00E946C
:100D40001C0B2196C13FD10514F0C0EFD0E04AE062
:100D500050E0BE018AEA96E00E94FF0E40E06AE0A1
:100D60008EE696E00E94C60963E675E08EE696E0A0
:100D70000E94920040E06AE08EE696E00E94C6097A
:100D80004AE050E0BE018EE696E00E94F80E8091A7
:100D900000010E941B0C892B61F568EC70E080E07B
:100DA00090E00E941C0B21971C161D0614F0C1E058
:100DB000D0E04AE050E0BE018AEA96E00E94FF0ED1
:100DC00040E06AE08EE696E00E94C60963E675E0C0
:100DD0008EE696E00E94920040E06AE08EE696E0A1
:100DE0000E94C6094AE050E0BE018EE696E00E94ED
:100DF000F80EFF2009F48BCF69E675E08AEA96E0E9
:100E00000E943A0E4AE050E0B8018AEA96E00E9459
:100E1000FF0E41E060E08EE696E00E94C60969E7B9
:100E200075E08EE696E00E94920041E06AE08EE670
:100E300096E00E94C6094AE050E0B8018EE696E0CE
:100E40000E94F80E64EF71E080E090E00E941C0BBD
:100E500086E00E941B0CF12C892B41F464EF71E0B9
:100E600080E090E00E941C0BFF24F394809102012B
:100E70000E941B0C892B69F568EC70E080E090E023
:100E80000E941C0B0F5F1F4F093C110514F008EC6A
:100E900010E04AE050E0B8018AEA96E00E94FF0EB6
:100EA00041E06AE08EE696E00E94C60963E675E0DE
:100EB0008EE696E00E94920041E06AE08EE696E0BF
:100EC0000E94C6094AE050E0B8018EE696E00E9412
:100ED000F80E809100010E941B0C892B69F568ECCB
:100EE00070E080E090E00E941C0B01501109101688
:100EF000110614F001E010E04AE050E0B8018AEA7F
:100F000096E00E94FF0E41E06AE08EE696E00E94C5
:100F1000C60963E675E08EE696E00E94920041E025
:100F20006AE08EE696E00E94C6094AE050E0B80109
:100F30008EE696E00E94F80EFF2009F489CF64EF58
:100F400071E080E090E00E941C0B63E875E08AEAA3
:100F500096E00E943A0E67E975E08AEA96E00E9400
:100F60004D0E8EE696E00E94BF0940E061E08EE6FD
:100F700096E00E94C6096BE975E08EE696E00E9455
:100F800092004AE061E08EE696E00E94C60965EABA
:100F900075E08EE696E00E94920064EF71E080E0DA
:100FA00090E00E941C0B6CEA75E08AEA96E00E94D1
:100FB0004D0EFF24F39486E00E941B0CE12C892B3C
:100FC00041F464EF71E080E090E00E941C0BEE249D
:100FD000E394809102010E941B0C892BE1F468ECE0
:100FE00070E080E090E00E941C0B4AE061E08EE639
:100FF00096E0F11077C00E94C60965EA75E08EE6BA
:1010000096E00E9492006CEA75E08AEA96E00E94FF
:101010004D0EFF24F394809100010E941B0C892B3C
:10102000E1F468EC70E080E090E00E941C0B4AE084
:1010300061E08EE696E0F11065C00E94C60965EA9F
:1010400075E08EE696E00E9492006CEA75E08AEA0E
:1010500096E00E944D0EFF24F394EE2009F4ABCFEE
:10106000FF20C1F061EC75E08AEA96E00E944D0E27
:101070001093070100930601602F81E090E00E9429
:101080002F11D0930501C09304016C2F82E090E0F2
:101090000E942F118EE696E00E94BF0940E060E0BA
:1010A0008EE696E00E94C60969E872E08EE696E058
:1010B0000E94920041E060E08EE696E00E94C60940
:1010C00068EE75E08EE696E00E94920067EF75E0AC
:1010D0008AEA96E0DF91CF911F910F91FF90EF90F8
:1010E0000C944D0E0E94C60963EB75E08EE696E007
:1010F0000E9492006AEB75E08AEA96E00E944D0E2B
:10110000F12C89CF0E94C60963EB75E08EE696E06C
:101110000E9492006AEB75E08AEA96E00E944D0E0A
:10112000F12C9BCF809189068823B1F061E087E0A4
:101130000E94ED0B60E088E00E94ED0B82E00E94CF
:101140001B0C892B11F00C946B0383E00E941B0C89
:10115000892B11F00C94D20380918A068823E1F048
:1011600060E087E00E94ED0B61E088E00E94ED0BFB
:1011700082E00E941B0C892B29F080918806811146
:101180000C941C0683E00E941B0C892B29F0809193
:10119000870681110C94F80585E00E941B0C892BB1
:1011A00011F40C94CE0284E00E941B0C892B21F4D4
:1011B00080918906882381F086E00E941B0C892B90
:1011C00069F462E276E08AEA96E00E944D0E81E0E0
:1011D000809386060C9440060C9459028EE00E947F
:1011E0001B0C892B31F460E376E08AEA96E00E94DA
:1011F0004D0E8FE00E941B0C892B31F46EE376E0DC
:101200008AEA96E00C944D0E0895CF92EF920F93D8
:1012100083E1C82E92E1E92E01E120E14BE06CE090
:101220008EE696E00E947B0A0F91EF90CF90089592
:1012300090E080E008950895CF93DF93EC0160E0A3
:101240008E810E94ED0B81E090E00E94550B61E0E1
:101250008E810E94ED0B81E090E00E94550B60E0D2
:101260008E810E94ED0B84E690E0DF91CF910C948B
:10127000550BCF92DF92EF92FF920F931F93CF9374
:10128000DF936C017C0187E0E80EF11CD0E0C0E048
:10129000062F10E0B8010C2E02C0759567950A94D0
:1012A000E2F76170F70181917F010E94ED0B2196B9
:1012B000C430D10579F7C601DF91CF911F910F910D
:1012C000FF90EF90DF90CF900C941C09CF92DF92AB
:1012D000EF92FF920F931F93CF93DF936C017C01EA
:1012E00087E0E80EF11CD0E0C0E0062F10E0B80166
:1012F0000C2E02C0759567950A94E2F76170F701AC
:1013000081917F010E94ED0B2196C830D10579F7BC
:10131000C601DF91CF911F910F91FF90EF90DF9069
:10132000CF900C941C091F93CF93DF93EC01162FE1
:10133000642F8C810E94ED0B8D818F3F19F060E04E
:101340000E94ED0B8F85612F84FF06C0CE01DF91D7
:10135000CF911F910C94660970E084E075956795B4
:101360008A95E1F7CE010E943909612FCE01DF9104
:10137000CF911F910C94390940E00C94930961E0DE
:101380000E94BC0980ED97E00C94550B443008F0A6
:1013900043E0FC012389421710F04FEF420FFC019C
:1013A000E40FF11D2489620F60680C94BC09FC01F4
:1013B0006089262F2460208B6C600C94BC090F93ED
:1013C0001F93CF93DF93EC01423018F08F85886034
:1013D0008F874B8B1C8A80E48D8B6E8B605C6F8B50
:1013E000222329F0413019F48F8584608F8761E0D2
:1013F0008C810E94B10B8D818F3F19F061E00E94BA
:10140000B10B61E08E810E94B10B8E0198012C1B03
:101410003D0B8F8584FD0DC084E090E00F5F1F4F72
:10142000281739074CF461E0F80186810E94B10B5E
:10143000EDCF88E090E0F2CF80E593EC0E94550B71
:1014400060E08C810E94ED0B60E08E810E94ED0BCC
:101450008D818F3F19F060E00E94ED0B6F8564FD78
:1014600033C063E0CE010E94390984E991E10E9412
:10147000550B63E0CE010E94390984E991E10E9495
:10148000550B63E0CE010E94390986E990E00E9485
:10149000550B62E0CE010E9439096F856062CE0172
:1014A0000E94BC0984E0888BCE010E94D709CE013E
:1014B0000E94BF0982E0898B66E0CE01DF91CF9167
:1014C0001F910F910C94BC096062CE010E94BC096F
:1014D00084E991E10E94550B6F856062CE010E9404
:1014E000BC0986E990E00E94550B6F856062CE01D1
:1014F0000E94BC09D2CFCF92EF920F93FC011382CE
:10150000128280E596E09183808364838FEF8583E8
:10151000468327830087E186C28613861486158654
:101520001686178620E041E060E1CF010F91EF9031
:10153000CF900C94DF0941E00E94930981E090E094
:1015400008951F920F920FB60F9211242F933F937D
:101550008F939F93AF93BF938091A6069091A70618
:10156000A091A806B091A9063091A50623E0230F0B
:101570002D3768F126E8230F0296A11DB11D209397
:10158000A5068093A6069093A706A093A806B093FD
:10159000A9068091A1069091A206A091A306B09100
:1015A000A4060196A11DB11D8093A1069093A206E9
:1015B000A093A306B093A406BF91AF919F918F9182
:1015C0003F912F910F900FBE0F901F90189501968D
:1015D000A11DB11DD4CF2FB7F8946091A6067091CC
:1015E000A7068091A8069091A9062FBF08953FB73E
:1015F000F8948091A1069091A206A091A306B091C3
:10160000A40626B5A89B05C02F3F19F00196A11D81
:10161000B11D3FBFBA2FA92F982F8827BC01CD013C
:10162000620F711D811D911D42E0660F771F881F9B
:10163000991F4A95D1F708958F929F92AF92BF92CA
:10164000CF92DF92EF92FF926B017C010E94F70A2A
:101650004B015C01C114D104E104F104E9F00E94E2
:10166000400F0E94F70A681979098A099B09683EA8
:1016700073408105910570F321E0C21AD108E10899
:10168000F10888EE880E83E0981EA11CB11CC114DD
:10169000D104E104F10429F7FF90EF90DF90CF909F
:1016A000BF90AF909F908F9008958230910538F051
:1016B000880F991F880F991F05970197F1F70895D3
:1016C000789484B5836084BD85B5836085BDEEE67E
:1016D000F0E0808181608083E1E8F0E082E0808357
:1016E000808181608083E0E8F0E080818160808398
:1016F000E1EBF0E0808184608083E0EBF0E08081CA
:101700008160808387E880937A001092C1000895F9
:10171000843081F028F48230E9F08330F9F00895C4
:10172000883071F0893091F08530B9F48091800073
:101730008F7D03C0809180008F7780938000089513
:101740008091B0008F778093B00008958091B000B1
:101750008F7DF9CF84B58F7784BD089584B58F7D53
:10176000FBCFCF93DF9390E0FC01E158FF4F249132
:101770008A569F4FFC0184918823C9F090E0880F1E
:10178000991FFC01EF53FF4FA591B491FC01E9545F
:10179000FF4FC591D49161110DC09FB7F8948C9102
:1017A000209582238C938881282328839FBFDF91F3
:1017B000CF910895623051F49FB7F8943C91822FF5
:1017C000809583238C93E8812E2BEFCF8FB7F894ED
:1017D000EC912E2B2C938FBFEACF1F93CF93DF93E7
:1017E000282F30E0F901E859FF4F8491F901E158C1
:1017F000FF4FD491F901EA56FF4FC491CC23A9F0D1
:10180000162F81110E94880BEC2FF0E0EE0FFF1FC6
:10181000E954FF4FA591B4918FB7F894EC91111151
:1018200008C0D095DE23DC938FBFDF91CF911F914D
:101830000895DE2BF8CFCF93DF93282F30E0F90106
:10184000E859FF4F8491F901E158FF4FD491F90114
:10185000EA56FF4FC491CC23A1F081110E94880B5E
:10186000EC2FF0E0EE0FFF1FE355FF4FA591B49171
:10187000EC91ED2381E090E009F480E0DF91CF91DD
:10188000089580E090E0FACFFC01918D228D892FA0
:1018900090E0805C9F4F821B91098F739927089578
:1018A000FC01918D828D981731F0828DE80FF11D2A
:1018B000858D90E008958FEF9FEF0895FC01918D45
:1018C000828D981761F0A28DAE0FBF2FB11D5D966E
:1018D0008C91928D9F5F9F73928F90E008958FEF10
:1018E0009FEF0895FC01538D448D252F30E0842F08
:1018F00090E0821B930B541710F0CF960895019738
:10190000089587EC9DE0892B49F080E090E0892BD9
:1019100029F00E94C70D81110C9400000895FC016C
:10192000A48DA80FB92FB11DA35ABF4F2C91848D40
:1019300090E001968F739927848FA689B7892C939D
:10194000A089B1898C9180648C93938D848D981338
:1019500006C00288F389E02D80818F7D8083089501
:10196000CF93DF93EC01888D8823B9F0AA89BB89D6
:10197000E889F9898C9185FD03C0808186FD0DC0C1
:101980000FB607FCF7CF8C9185FFF2CF808185FFE2
:10199000EDCFCE010E948F0CE9CFDF91CF9108955A
:1019A000EF92FF920F931F93CF93DF93EC0181E0AF
:1019B000888F9B8D8C8D981316C0E889F98980815A
:1019C00085FF11C0EE89FF896083E889F9898081EC
:1019D0008064808381E090E0DF91CF911F910F912F
:1019E000FF90EF900895F62E0B8D10E00F5F1F4FC4
:1019F0000F731127E02E8C8D8E110CC00FB607FCD3
:101A0000FACFE889F989808185FFF5CFCE010E9460
:101A10008F0CF1CFEB8DEC0FFD2FF11DE35AFF4F33
:101A2000F0820B8FEA89FB8980818062D2CFCF92CE
:101A3000DF92EF92FF921F93CF93DF93EC016A0145
:101A40007B01122FE889F98982E08083C11481EE3D
:101A5000D806E104F104A1F060E079E08DE390E0C4
:101A6000A70196010E94DD10215031094109510959
:101A70005695479537952795211580E1380798F0B9
:101A8000E889F989108260E874E88EE190E0A701A6
:101A900096010E94DD1021503109410951095695E6
:101AA000479537952795EC85FD853083EE85FF8535
:101AB0002083188EEC89FD891083EA89FB89808157
:101AC00088698083EA89FB8980818F7D8083DF91AB
:101AD000CF911F91FF90EF90DF90CF9008951F92CC
:101AE0000F920FB60F9211242F938F939F93EF9322
:101AF000FF93E091BA06F091BB068081E091C006A9
:101B0000F091C10682FD1BC090818091C3068F5F5A
:101B10008F732091C406821741F0E091C306F0E074
:101B2000E655F94F958F8093C306FF91EF919F91F2
:101B30008F912F910F900FBE0F901F90189580815D
:101B4000F4CF1F920F920FB60F9211242F933F9351
:101B50004F935F936F937F938F939F93AF93BF93B5
:101B6000EF93FF938AEA96E00E948F0CFF91EF912A
:101B7000BF91AF919F918F917F916F915F914F91A5
:101B80003F912F910F900FBE0F901F9018958AEAEA
:101B900096E00E94440C21E0892B09F420E0822F7A
:101BA0000895EAEAF6E01382128288EE93E0A0E05C
:101BB000B0E084839583A683B7838CE596E0918318
:101BC000808385EC90E09587848784EC90E097870C
:101BD000868780EC90E0918B808B81EC90E0938BFA
:101BE000828B82EC90E0958B848B86EC90E0978BD7
:101BF000868B118E128E138E148E0895AF92BF9223
:101C0000CF92DF92EF92FF920F931F93CF93DF93C8
:101C10006C017B018B01040F151FEB015E01AE18F7
:101C2000BF08C017D10759F06991D601ED91FC9119
:101C30000190F081E02DC6010995892B79F7C50146
:101C4000DF91CF911F910F91FF90EF90DF90CF9098
:101C5000BF90AF900895FB0101900020E9F7319704
:101C6000AF01461B570BDC01ED91FC910280F38123
:101C7000E02D09946115710511F00C942B0E90E084
:101C800080E00895DC01ED91FC910190F081E02D60
:101C900009946AE676E00C942B0E0F931F93CF9372
:101CA000DF938C01D0E0C0E06115710519F00E944E
:101CB0002B0EEC01C8010E94490E8C0F9D1FDF9175
:101CC000CF911F910F9108958F929F92AF92BF92E3
:101CD000EF92FF920F931F93CF93DF93CDB7DEB7B1
:101CE000A1970FB6F894DEBF0FBECDBF7C01FA01FD
:101CF000CB0119A2223008F42AE08E010F5D1F4F9C
:101D0000822E912CB12CA12CBF01A50194010E941F
:101D1000DD10F901CA016A300CF5605DD8016E93DF
:101D20008D01232B242B252B79F790E080E0109751
:101D300021F0BD01C7010E942B0EA1960FB6F894A9
:101D4000DEBF0FBECDBFDF91CF911F910F91FF90EE
:101D5000EF90BF90AF909F908F900895695CDECF19
:101D6000CF92DF92EF92FF920F931F93CF93DF9367
:101D70002115310581F4DC01ED91FC910190F08198
:101D8000E02D642FDF91CF911F910F91FF90EF9085
:101D9000DF90CF9009942A30310501F52AE077FFD2
:101DA0001DC06A017B01EC016DE20E94420E8C01B4
:101DB00044275527BA014C195D096E097F092AE0AD
:101DC000CE010E94640E800F911FDF91CF911F9171
:101DD0000F91FF90EF90DF90CF900895DF91CF911A
:101DE0001F910F91FF90EF90DF90CF900C94640EB5
:101DF0009A01AB01770F660B770B0C94B00E0F9323
:101E00001F93CF93DF93EC010E94F80E8C01CE015B
:101E10000E94490E800F911FDF91CF911F910F916A
:101E200008952115310541F4DC01ED91FC910190FB
:101E3000F081E02D642F09940C94640E0F931F938E
:101E4000CF93DF93EC010E94110F8C01CE010E9411
:101E5000490E800F911FDF91CF911F910F9108952F
:101E600008950E94600B0E94300F0E94A700C1E8F5
:101E7000DCE00E9492082097E1F30E94810CF9CFE8
:101E800008950E94550F0C9436100E942F1058F0A0
:101E90000E94281040F029F45F3F29F00C941F1095
:101EA00051110C946A100C9425100E94471068F38D
:101EB0009923B1F3552391F3951B550BBB27AA2703
:101EC00062177307840738F09F5F5F4F220F331F3D
:101ED000441FAA1FA9F335D00E2E3AF0E0E832D005
:101EE00091505040E695001CCAF72BD0FE2F29D008
:101EF000660F771F881FBB1F261737074807AB07DA
:101F0000B0E809F0BB0B802DBF01FF2793585F4F4E
:101F10003AF09E3F510578F00C941F100C946A1013
:101F20005F3FE4F3983ED4F3869577956795B79530
:101F3000F7959F5FC9F7880F911D9695879597F93B
:101F40000895E1E0660F771F881FBB1F62177307B4
:101F50008407BA0720F0621B730B840BBA0BEE1FC9
:101F600088F7E09508950E944F1088F09F5798F0E9
:101F7000B92F9927B751B0F0E1F0660F771F881F8E
:101F8000991F1AF0BA95C9F714C0B13091F00E94A8
:101F90006910B1E008950C946910672F782F882795
:101FA000B85F39F0B93FCCF3869577956795B395CF
:101FB000D9F73EF490958095709561957F4F8F4F3E
:101FC0009F4F0895E89409C097FB3EF49095809543
:101FD000709561957F4F8F4F9F4F9923A9F0F92FEF
:101FE00096E9BB279395F695879577956795B7956D
:101FF000F111F8CFFAF4BB0F11F460FF1BC06F5F53
:102000007F4F8F4F9F4F16C0882311F096E911C064
:10201000772321F09EE8872F762F05C0662371F085
:1020200096E8862F70E060E02AF09A95660F771F99
:10203000881FDAF7880F9695879597F9089597F98D
:102040009F6780E870E060E008959FEF80EC08955E
:1020500000240A9416161706180609060895002487
:102060000A9412161306140605060895092E039401
:10207000000C11F4882352F0BB0F40F4BF2B11F475
:1020800060FF04C06F5F7F4F8F4F9F4F089557FDD4
:102090009058440F551F59F05F3F71F04795880FD6
:1020A00097FB991F61F09F3F79F08795089512166D
:1020B00013061406551FF2CF4695F1DF08C0161619
:1020C00017061806991FF1CF8695710561050894CA
:1020D0000895E894BB2766277727CB0197F90895E1
:1020E0000E9483100C9436100E94281038F00E9431
:1020F0002F1020F0952311F00C941F100C94251034
:1021000011240C946A100E94471070F3959FC1F33C
:10211000950F50E0551F629FF001729FBB27F00D95
:10212000B11D639FAA27F00DB11DAA1F649F6627EA
:10213000B00DA11D661F829F2227B00DA11D621F39
:10214000739FB00DA11D621F839FA00D611D221FF3
:10215000749F3327A00D611D231F849F600D211DD7
:10216000822F762F6A2F11249F5750409AF0F1F05A
:1021700088234AF0EE0FFF1FBB1F661F771F881FC3
:1021800091505040A9F79E3F510580F00C941F10CC
:102190000C946A105F3FE4F3983ED4F386957795EC
:1021A0006795B795F795E7959F5FC1F7FE2B880F69
:1021B000911D9695879597F90895A1E21A2EAA1B6D
:1021C000BB1BFD010DC0AA1FBB1FEE1FFF1FA217E7
:1021D000B307E407F50720F0A21BB30BE40BF50BE4
:1021E000661F771F881F991F1A9469F7609570956D
:1021F000809590959B01AC01BD01CF010895B7FF7B
:102200000C940D110E940D11821B930B0895EE0F7B
:10221000FF1F0590F491E02D09940E941811A59FCD
:10222000900DB49F900DA49F800D911D11240895D1
:10223000A29FB001B39FC001A39F700D811D112407
:10224000911DB29F700D811D1124911D0895F99962
:10225000FECF92BD81BDF89A992780B50895262FAB
:10226000F999FECF1FBA92BD81BD20BD0FB6F8947B
:0E227000FA9AF99A0FBE01960895F894FFCFDE
:10227E000E000F00A00004000200496E697469612F
:10228E006C697A696E670056657273696F6E20208D
:10229E00332E005365747570204C434400547261A4
:1022AE00696E2053706565646F005265747269655E
:1022BE00766520454550524F4D2064617461004D46
:1022CE006561737572696E6720747261636B206CE1
:1022DE00656E67746820696E20646D203D20004D28
:1022EE006561737572696E67207363616C65203DFD
:1022FE0020313A0045737461626C697368696E6768
:10230E002043616C63756C6174696E6720636F6ED8
:10231E0076657273696F6E20666163746F720064A6
:10232E006D2F6D73202D3E206B6D2F6820203D206C
:10233E002020332C3620782064697374616E6365B7
:10234E0028646D292078207363616C6528532920D9
:10235E002F2054696D65286D53656329200033362F
:10236E00207820002078203230202F20323030305C
:10237E000053657474696E67204F757470757420A0
:10238E006368616E6E656C730053657474696E6715
:10239E00204F7574707574206368616E6E656C7312
:1023AE0020616E6420656E61626C696E6720696E75
:1023BE007465726E616C2050756C6C205570207255
:1023CE0065736973746F72730041747461636869C5
:1023DE006E6720696E7465727275707473005365E2
:1023EE007474696E67207661726961626C657300E0
:1023FE005374617274696E670053797374656D20DE
:10240E005265616479005072657373202A2A2047E1
:10241E004F202A2A2000496E697469616C697361C4
:10242E0074696F6E204F4B0050726573732020538A
:10243E00544152542020627574746F6E20746F2054
:10244E00696E697469617465206D65617375726515
:10245E006D656E74200044342020746F2067726F97
:10246E00756E640053797374656D2061726D656469
:10247E000053657474696E67204952204C4544734D
:10248E000053657474696E6720537461747573209C
:10249E004C4544730053657474696E672073656EA2
:1024AE00736F7273002A2A2A2053544152544544A2
:1024BE00202A2A2A005761697420666F7220536998
:1024CE00676E616C0053797374656D205265736528
:1024DE0074002A2A20522045205320452054202AB9
:1024EE002A00506C6561736520686F6C642E2E2E09
:1024FE002E00526573657474696E67204952204CC4
:10250E004544730044322020746F2067726F756EDD
:10251E0064004C65667453746172742074726967DA
:10252E0067657265640044697361626C696E6720E9
:10253E006C6566742073656E736F72203100535430
:10254E004152544544204C454654004D65617375C7
:10255E0072696E672E2E2E2E0044332020746F204B
:10256E0067726F756E640052696768745374617236
:10257E00742074726967676572656400446973617B
:10258E00626C696E672072696768742073656E731A
:10259E006F722032005354415254454420524947E1
:1025AE0048540044697361626C696E6720626F748F
:1025BE00682073656E736F72730053657474696E01
:1025CE00672073797374656D207661726961626CD0
:1025DE0065730043616C63756C6174696E6700535B
:1025EE007465702031202D20332C36202A204C6526
:1025FE006E6774682020203A200053746570203274
:10260E00202D207370656564202A205363616C65EC
:10261E0020203A2000537465702033202D207370D3
:10262E00656564202F44656C74612020203A20007B
:10263E00416C7465726E617465203A200044697352
:10264E00706C6179696E670054696D653A006B6DE7
:10265E002F683D004C656E677468203D2000206435
:10266E006D0054696D652020203D2000206D53655E
:10267E0063005363616C6520203D20004B6D2F6815
:10268E002020203D2000206B6D2F680053544F50AA
:10269E0050454400526967687453746F70207472A9
:1026AE0069676765726564004C65667453746F7014
:1026BE00207472696767657265640053656C656343
:1026CE0074205363616C65203A005363616C65201E
:1026DE003A200020202020200053656C6563742072
:1026EE004C656E677468203A004C656E677468209E
:1026FE003A2000436F6E6669726D206F72204361DF
:10270E006E63656C203A00592F4E00416374696FF9
:10271E006E203A20004143434550540041636365A7
:10272E0070740052454A4543540052656A6563749D
:10273E000057726974696E672076616C75657320D7
:10274E00746F206D656D6F727920616E6420756493
:10275E00706174696E6720005072657373202A2A47
:10276E0020474F202A2A00446F6E652073617669D8
:10277E006E672076616C7565732E202072656164BC
:10278E007920666F72206E65787420616374696F4C
:10279E006E0044362020746F2067726F756E640071
:1027AE0041302020746F2067726F756E6400413166
:1027BE002020746F2067726F756E64000000000039
:1027CE009B0AFE0D18091B0900000000D00CFE0D1F
:0E27DE00720CB00C440C5E0C500C0D0A000086
:00000001FF
